:100000000C947D030C94B5030C94B5030C94B503C8
:100010000C94B5030C94B5030C94B5030C94B50380
:100020000C94B5030C94B5030C9405100C94BC15FA
:100030000C9474280C94B5030C94B5030C94B5037C
:100040000C94B5030C94B5030C94B5030C94B50350
:100050000C94B5030C94DE100C94B5030C94B5030A
:100060000C94B5030C94B5030C94B5030C94B50330
:100070000C94B5030C94B5030C94B5030C94B50320
:100080000C94B5030C94B5030C94B5030C94B50310
:100090000C94B5030C94B5030C94B5030C94B50300
:1000A0000C94B5030C94B5030C94B50305010980B9
:1000B000A101850319012AB700150126B700950192
:1000C00075108100C0050C0901A101850419012AE0
:1000D000A002150126A002950175108100C00660DE
:1000E000FF0961A1010962150026FF00952075082E
:1000F00081020963150026FF00952075089102C052
:1001000005010906A101050719E029E715002501E8
:10011000950875018102950175088101050719008F
:1001200029FF150026FF00950675088100050819AE
:10013000012905950575019102950175039101C08D
:1001400000DA0281FFD9F1DB20A4A62EAF00A0C007
:1001500000A1C800AED580A81FD300408D14200098
:1001600000000000003E7A7EFFFEFEFCFCF8F8F086
:10017000E0A0E0408000000000000000000000005F
:100180000000000000000000000001033FB37FFFFB
:10019000FF7F1F1F323E7F7FFEFEF8FCFCF8F80059
:1001A000008080C0C0F0F0F0E8E8F0F8F8F1F0FF6F
:1001B000FFFCFEFCFCFEFEFEFF7F7F7F3F3F3F0714
:1001C00001070707030705050703030707030703DD
:1001D000033F070F010100000000000000000000C5
:1001E0000000000000161F3F3F3F3F3F7E7EFEFCA9
:1001F000FCFCFCF4F8F0E0F0F0FCFCFEF8E00000A1
:10020000000000000000C0E0F0F0F8FCFEFE3F7FC0
:10021000FFFFFFFDF1C10103030307FFFFFF1B0009
:1002200080E0F0FCFEFF3F3F1F0F070300000000CF
:10023000030F1F172F5F1F36343CBDDFCFC30000F5
:10024000000783C3C140C0C040000080C0800000E0
:10025000000000000000000000FE3FFFFFFF000064
:100260000000131B0B0B0B0B0F1F1F1F1F3F3F3FEC
:100270003F3F7F7F7F7EFEFEFEFFFEFFFFFFF00021
:10028000000000000000000000000000000000006E
:1002900000000000000000000001017FFFFFFF00E0
:1002A000004040404040404040404040404040C00E
:1002B00040404040404040404040404043C3070031
:1002C0000000000000000000000000000000003FEF
:1002D000C08000000000000000000080807F00005F
:1002E00000040404040808080810101010F020206E
:1002F0002020214141414181818181810000000014
:10030000008080404040402020202020101F1010FE
:10031000180808080C040404040202020303000085
:1003200000F01010101010101010101010101010FD
:1003300010101010101010101010101010F00000FD
:10034000000F3040404080808080808080808080AE
:10035000808080808080808080804040201F0000DE
:10036000FD377A585A000004E6D6B446020021014F
:1003700016000000742FE5A3E001A200995D003D86
:10038000888986D3DC0AE842C324925842597FBD4B
:10039000199EB8FF9AB15C1A1E330845639C11740C
:1003A000376FBFEF729718248DC52BCA008DF66F7B
:1003B00069476CC603AED93E0C5073CB46B0DCC463
:1003C000247706F2EB605AFB6D77A930755253F92A
:1003D000718D82522D23B18E6937EADD11B1F1A5FD
:1003E0000425B0A8DB676979317D924A7D5A0BEB11
:1003F00024766292B47689F69455780521362042A7
:100400008F08B629DA33AAD60E16D2CC0471876CBF
:1004100085832F0D2BB277730000000066EF0C1E52
:10042000CE60972B0001B501A30300001977AAE95C
:10043000B1C467FB020000000004595A0001010129
:100440000101010101010202020202020202020391
:100450000303030303030304040404040404050561
:100460000505050606060606070707070708080824
:1004700008090909090A0A0A0B0B0B0C0C0C0D0DD3
:100480000D0E0E0E0F0F0F1010111111121213136B
:100490001414151516161717181819191A1A1B1BE4
:1004A0001C1D1D1E1E1F2020212222232424252640
:1004B00026272829292A2B2C2D2D2E2F3031323278
:1004C000333435363738393A3B3C3D3E3F40414284
:1004D000434445464748494A4C4D4E4F505153546A
:1004E000555658595A5B5D5E5F616264656668691E
:1004F0006B6C6D6F7072737577787A7B7D7E80829E
:10050000838587888A8C8E8F91939596989A9C9EE6
:10051000A0A2A3A5A7A9ABADAFB1B3B5B7BABCBEF6
:10052000C0C2C4C6C9CBCDCFD1D4D6D8DBDDDFE2C3
:10053000E4E7E9EBEEF0F3F5F8FAFDFFC95CCA5C1D
:10054000C55CC65C04000500060007000800090041
:100550000A000B000C000D000E000F00100011002F
:100560001200000000000000000001511300140000
:10057000150016001700180019001A001B00C75CB0
:100580001D001E001F002000C85C000000000000CD
:100590000000010000AF00AE0000000000000000FD
:1005A000000000000000000000000000000000004B
:1005B0000000000000000000000000007E0F00D4DA
:1005C000FFFFFFC7000000780000000000000000EF
:1005D0002A2B28000000000000000000000000009E
:1005E00000000029000000002C1E342021222434A9
:1005F0002627252E362D3738271E1F20212223247B
:1006000025263333362E37381F0405060708090A16
:100610000B0C0D0E0F101112131415161718191AB2
:100620001B1C1D2F3130232D350405060708090A30
:100630000B0C0D0E0F101112131415161718191A92
:100640001B1C1D2F3130354C09025B00030100A03B
:10065000FA09040000010301010009211101000150
:10066000224000070581030800010904010002037C
:100670000000000921110100012222000705820368
:100680002000010705030320000109040200010303
:100690000000000921110100012232000705840336
:1006A00020000112010002000000089EDC8DA9015B
:1006B00000010203011C037600690061006C003A2E
:1006C00000660036003400630032006200330063CD
:1006D0000000000E034100720074005000610064CD
:1006E000000000100344004300500045006400690E
:1006F0000074000000040309040011241FBECFEFA2
:10070000DAE0DEBFCDBF04B603FE18C08091BE069E
:100710009091BF06A091C006B091C1068730904B62
:10072000A740B04B59F41092BE061092BF0610922B
:10073000C0061092C106E0E0F8E3099511E0A0E0E0
:10074000B1E0EAE6F6E602C005900D92A238B107E4
:10075000D9F726E0A2E8B1E001C01D92AE3BB20796
:10076000E1F70E949B280C9408330C940000E8EDFC
:10077000F0E080818E7F80831092E2001092DA0098
:100780001092E100A0EEB0E08C9181608C938081AA
:100790008F77808319BCA7EDB0E08C918E7F8C930E
:1007A00080818F7E80831092A60608952091E400B8
:1007B0003091E50095E6A9012091EC00822F81702F
:1007C00020FF06C08091E80080FF06C080E0089509
:1007D0002091E80022FD1AC08091B306882389F099
:1007E000853089F08091EB0085FD0FC02091E400F9
:1007F0003091E50042175307F9F29150E1F684E099
:10080000089582E0089583E0089581E00895EF92CD
:10081000FF920F931F93CF937C018B010E94D6030D
:10082000C82F811117C08091E80085FD0BC0809111
:10083000E8008E778093E8000E94D603882399F31E
:10084000C82F08C0F70181917F018093F10001500A
:10085000110949F78C2FCF911F910F91FF90EF90C5
:1008600008958091B50687FF13C08091E80082FF4C
:1008700006C08091E8008B778093E80004C08091E7
:10088000B3068111F2CF08958091B3068823D9F37E
:100890008091E80080FFF8CF8091E8008E77ECCF60
:1008A000982F9093E900242F762F50E0891731F08C
:1008B0007091EC002091ED005091F00021FD07C0F7
:1008C0009F5F973071F78093E90081E00895309140
:1008D000EB003E7F3093EB003091ED003D7F309395
:1008E000ED003091EB0031603093EB007093EC0041
:1008F0002093ED005093F0002091EE0027FDE0CF13
:1009000080E00895B0E0A0E0E8E8F4E00C943D3227
:10091000C8EDD0E088818F7E8883E7EDF0E08081AC
:100920008160808384E082BF81E08093A606888115
:100930008E7F888302EE10E0F80110821092DA00B8
:1009400081EEC82ED12CF601108288818F778883A2
:1009500088818068888388818F7D888319BC109204
:10096000B3061092B4061092B2061092B10690EE41
:10097000E92EF12CF70180818B7F80838881816053
:10098000888342E060E080E00E945004F6018081AC
:100990008E7F8083F8018081816080838081886080
:1009A0008083F70180818E7F808388818061888346
:1009B000CDB7DEB7E8E00C945932FC018091BB065C
:1009C0009091BC0686179707A0F06115710529F470
:1009D0009091E8009E779093E80090E06115710592
:1009E00051F4911108C08091E80082FF34C080E08A
:1009F0000895BC01F2CF8091B3068823C1F1853000
:100A0000C1F18091E80083FD30C08091E80082FD53
:100A1000EACF8091E80080FFE1CF8091F300209140
:100A2000F200382F6115710519F02830310558F0A2
:100A300091E02830310509F090E02091E8002E7710
:100A40002093E800CBCF81918093F1006150710930
:100A50002F5F3F4FE7CF8091B306882341F0853069
:100A600041F08091E80083FFBECF81E0089582E0ED
:100A7000089583E00895089508958091A806089543
:100A80002FB7F89460919F067091A0068091A106FF
:100A90009091A2062FBF089520919C0630919D064B
:100AA0002817390771F090939D0680939C06E0917A
:100AB0009A06F0919B06309721F00084F185E02D95
:100AC00009950895209198063091990628173907BD
:100AD00071F09093990680939806E0919A06F091B0
:100AE0009B06309721F00680F781E02D0995089547
:100AF000E0919A06F0919B06309729F00190F081E1
:100B0000E02D0995089580E00895CF93DF93EC01DF
:100B100040918606509187066091880670918906FB
:100B20002FB7F89480919F069091A006A091A106FE
:100B3000B091A2062FBF841B950BA60BB70B843F69
:100B40009140A105B10518F5809186069091870620
:100B5000A0918806B09189068093820690938306BF
:100B6000A0938406B093850684EF91E0A0E0B0E006
:100B700080937E0690937F06A0938006B0938106B3
:100B8000D0938E06C0938D06DF91CF9108950E9479
:100B90004005609382067093830680938406909349
:100BA000850682E390E0A0E0B0E0E2CFFC01848122
:100BB000862351F492819923B9F06923808583FFBC
:100BC00005C081E061110FC080E00895892F8F700A
:100BD00092959F70982B862F8F7062956F70682BFF
:100BE00081E09613F1CF089581E0FDCF452B39F0D8
:100BF000682381E06F3F09F080E08170089581E013
:100C0000FCCFDC0160917A0680917B06962F8913D8
:100C100001C00895292F30E0F901EE0FFF1FEE58B3
:100C2000F94F408151814A175B07A1F487E08A9F01
:100C3000A0018B9F500D1124465C594F81E0FA01B1
:100C400084839613E6CF2F5F3F4F23703327209383
:100C50007A0608952F5F3F4F922F9370D8CF10924E
:100C6000D7051092D605EAE3F6E08581811102C02E
:100C700014821682379686E0E237F807B1F70895B6
:100C8000E1E8F4E090E080E06EEB7BE145EE5BE1D3
:100C900023E33BE17783668351874087338722874D
:100CA0009587848701963E968830910599F7089537
:100CB00081152CE5920741F4209114013091150122
:100CC000232B11F490E080E00895FA01811101C016
:100CD000FB010995089580916A04982F9E7F39F44D
:100CE00080916A048170826080936A0408958430E0
:100CF000B8F7089580E00895F894E82FE295EF7032
:100D0000F0E031A1282F2F7081E090E001C0880F22
:100D10002A95EAF7982F9095932391A392A1892B76
:100D200082A3789408959091FC0192FF06C0282F29
:100D300028712830F9F4877F846093FF06C0282F3C
:100D400028712831F1F4877E84612091FD0120FF14
:100D500006C0382F38713830D9F4877F816021FF81
:100D600006C0282F28712831D1F4877E816194FD37
:100D7000877E0895282F24712430F9F68B7F8860B0
:100D8000DCCF282F2471243101F78B7E8861DDCFE1
:100D9000382F3171313019F78E7F8860E0CF282FDE
:100DA0002171213121F78E7E8861E1CFCF93DF93CE
:100DB000EC0182389105B1F108F040C08133910512
:100DC00009F49DC048F58932910509F48DC08A97D0
:100DD00009F49CC0C11522E5D20708F0BDC0C115B9
:100DE00031E5D30708F025C1C83ED10508F0A3C0FE
:100DF000C13ED10588F5C83AD10508F08EC0C53A84
:100E0000D10508F0F6C0C130D10531F1209721F1AC
:100E1000C430D10508F545C08533910509F45FC09C
:100E2000C997C1F68091FC01837009F037C18091A8
:100E3000FD0183FF11C0C9E2D0E00EC0833E9105E1
:100E400099F170F4803E910501F1823E910511F611
:100E50008091FC0182FD21C0CE01DF91CF910895E8
:100E6000863E910561F1873E910571F1843E9105C1
:100E700009F0B0CF8091FD0181FFEECF8091FC01A0
:100E8000C7EED0E084FD0DC0E7CF8091FC0180FD6E
:100E900033C09091FD0190FFDFCFC3EED0E084FF1F
:100EA000DBCFD0E0C0E0D8CF8091FC0182FDF3C061
:100EB0009091FD0190FDF2C084FFCECFF2CF8091E2
:100EC000FC0183FDDDCFC8CF8091FC0183FDE9C02B
:100ED0009091FD0191FFF0CFC4EED0E0BDCF8091A5
:100EE000FC0185FFB9CFA7CF8091FC0185FDDCC057
:100EF0008091FD0183FFB0CFC9E3D0E0ADCF8091F9
:100F0000FC0186FFA9CFCAE2D0E0A6CF8091FC0108
:100F100086FFA2CFC1E3D0E09FCFCF3BD10508F63B
:100F2000C85AD0E0CC0FDD1FCD5DDE4F0990D881CF
:100F3000C02DD46491CFC11540E5D40708F064C03A
:100F4000C11580E4D80708F05CC0CE019A958115E0
:100F50009F4108F481CFA5CFC11536E5D30718F519
:100F6000C11545E5D40708F07DC0C11584E5D80753
:100F700008F073C09C2F969596959E012370332799
:100F8000C115D34508F45AC0C1E0D0E002C0CC0F6F
:100F9000DD1F2A95E2F730E2939FC0011124C82B90
:100FA000D92BDA6859CFC1158AE5D80778F4C1156D
:100FB00029E5D20708F061C0C11538E5D30708F468
:100FC00070CFDC2FCC27C06FD06A46CFCE019056B1
:100FD0008115904208F065CF8D2F8F710E94930686
:100FE00090E0982F882788279F719C012C2BE9017E
:100FF00042C0C55AD0E0C05EDE4FC881D0E0D064A8
:101000002BCFDF70D06A28CF2C2F26952695237002
:1010100080E2289F900111248C2F8370C1E0D0E0E2
:1010200002C0CC0FDD1F8A95E2F7C22BD32BDD68FF
:1010300013CFDC2FCC27C16FD06A0ECFC1E0D0E038
:1010400002C0CC0FDD1F2A95E2F720E2929FC0017B
:101050001124C82BD92BDC68FFCEDC2FCC27C46F22
:10106000D06AFACE8C2F0E949306C82FD0E0DC2FD6
:10107000CC27CC27DF71D062EFCE8C2F8F700E94EF
:10108000930634E0D695C7953A95E1F7CF709C2F3B
:10109000EC01D069E1CEC2EED0E0DECEC0EED0E011
:1010A000DBCEC6EED0E0D8CEC5E3D0E0D5CE809181
:1010B000F301882331F01092F3011092F2011092A3
:1010C000F101089580959091940698239093940649
:1010D000089580959091950698239093950608958C
:1010E0001092E8011092E7011092E6010895E6E8F7
:1010F000F1E09191891303C0DF0111971C9291E0F7
:10110000EC38F907B1F70895A6E8B1E0EFEF90E009
:101110002D91821751F0EF3F19F4211101C0E92FF1
:101120009F5F9630A9F7EF3F09F408950E2E000C4B
:10113000FF0BEC57FE4F828308958091E50190915B
:10114000A401981301C008958F5F8770FACFA82F6C
:10115000A77023E0969587952A95E1F7FC01EE0F9D
:10116000FF1FE80FF91FE60FF71F50E040E080E097
:10117000219130E00A2E02C0369527950A94E2F7B5
:1011800021703327042E01C0220F0A94EAF7822B24
:101190004F5F5F4F4330510559F70895903FC9F0B5
:1011A000943080F48530A8F4282F30E063E971E0B2
:1011B000A901E5E09E9F400D511D1124CA010E9426
:1011C000A70808959C5F923020F460E971E090E0F8
:1011D000F6CF80E00895262F277091E001C0990F87
:1011E0002A95EAF723E0769567952A95E1F7FB01C2
:1011F000EE0FFF1FE60FF71FE40FF51F50E040E072
:10120000682F70E08191DF0111979B01042E02C0CD
:10121000369527950A94E2F72170219528272923EE
:1012200028272C934F5F5F4F4330510559F708959E
:10123000282F862F903F79F0943070F4253058F4A1
:10124000622F70E025E0929F600D711D112443E92B
:1012500051E00E94EB0808959C5F9230E0F7622F06
:1012600070E040E951E0F5CF9C013A9521153F41EE
:1012700050F5FC01EE27F170BC0166277270AC01DD
:10128000442754709C012227387094FF0EC080E1DF
:10129000EF2B09F480E0672B09F08062452B09F001
:1012A0008064232B89F08068089581E0EF2B09F496
:1012B00080E0672B09F08260452B09F08460232BC6
:1012C00019F08860089580E00895B0E0A0E0EBE6B2
:1012D000F9E00C943D326C017B0164E670E088E734
:1012E0000E943931EC0197FD12C010E000E0F601D8
:1012F000E00FF11F849164E670E00E94A531EC01DB
:10130000892B29F40F5F1F4F0E151F0581F70E94CF
:101310001B32CE01CDB7DEB7E8E00C945932809194
:10132000D4059091D505911103C091E089270895C6
:10133000882369F062E070E086E995E00E94650923
:10134000892B19F08091D40508951092D4058091CD
:10135000D405EBCFCF93C091D4058091D5058823D8
:10136000D1F00E944005605A75418F4F9F4F6093A6
:10137000D0057093D1058093D2059093D305C11108
:1013800008C062E070E084E995E00E946509892B5D
:1013900029F0C091D4058C2FCF91089581E08093DE
:1013A000D405F7CF8093A3067093A5066093A40697
:1013B0008091B3068430F9F48093E9008FEF909127
:1013C000E800815095FD06C095ED9A95F1F7000073
:1013D0008111F5CF8091E80085FF0DC050E040E01D
:1013E00063E070E083EA96E00E9407048091E800E1
:1013F0008E778093E8000895BC0184E00E94D209B2
:101400000895BC0183E00E94D2090895CF93DF9331
:10141000EC0181E08093E9008FEF9091E80081502A
:1014200095FD06C095ED9A95F1F700008111F5CF75
:101430008091E80085FF14C050E040E068E070E073
:10144000CE010E9407048091E8008E778093E80027
:1014500088E0FE01A9EAB6E001900D928A95E1F7D5
:10146000DF91CF91089581E08093E00080E2809346
:10147000D8001092C9008FE19EE40197F1F700C0F7
:10148000000087E090EBDC018093BE069093BF06DE
:10149000A093C006B093C10688E19CE00FB6F89413
:1014A000A895809360000FBE90936000FFCF80915D
:1014B0006A0480FD0AC0EAE3F4E01182108212821D
:1014C000339654E0EA36F507C1F7529A3BB13B7FB9
:1014D0002BB124604FB7F8948AE394E0FC0151915A
:1014E000CF0168E02BB9000000C057FF3BB9550F92
:1014F000000000C000C000C03BB900C06A9591F771
:10150000F4E08A369F0751F74FBF8FE594E00197CB
:10151000F1F700C000000895CF93DF93CFE6D1E04C
:1015200060E0CE010E94CC322196C11584E0D8073C
:10153000B9F7DF91CF9108950F931F93CF93DF9366
:10154000142F022F8230F0F461111CC094E0899FA7
:10155000E0011124C958DF4F82E090E0442311F0EC
:1015600090E080E0632F8C0F9D1F0E94CC3283E0BF
:1015700090E0112311F081E090E0602F8C0F9D1F0F
:101580000E94CC32DF91CF911F910F9108951F934C
:10159000CF93DF93122F8230E0F46430D0F44530E3
:1015A000C0F4C42FD0E0CC0FDD1F9AE0699FC00DBE
:1015B000D11D112498E2899FC00DD11D1124632FE4
:1015C000CE0187960E94CC32612FCE0188960E9470
:1015D000CC32DF91CF911F910895CF93C82F6FEF39
:1015E00081116FEB83E290E00E94CC326FEFC1116A
:1015F0006CE584E290E00E94CC326FEFC1116BEA9F
:1016000085E290E00E94CC32CF910895AEE1B0E047
:10161000ECE0FBE00C943432609014017090150102
:1016200081E090E090931501809314018CE3C82E23
:1016300085E0D82E9EE3A92E95E0B92E24E4E22E73
:1016400025E0F22E512C8701412C15C0F401259183
:101650003491432D642D852D0E94C70A82E0880EA7
:10166000911C3394E5E03E12F1CF065F1F4F439487
:10167000F4E04F1619F04801312CE8CFF60125911E
:10168000349141E060E0852D0E949C0AF50125918E
:10169000349140E060E0852D0E949C0A84E0C80EF1
:1016A000D11CE4E0AE0EB11CF8E2EF0EF11C81E0BB
:1016B000581619F055245394C6CF1A8219821C82E9
:1016C0001B821E821D8218861F8288EC90E09A87FA
:1016D00089870FE710E04AE050E0B801CE0101969B
:1016E0000E94F032065F1F4F0F3C1105A1F77E01EB
:1016F000EBE0EE0EF11C8AE0F70111928A95E9F712
:101700004AE050E0B801C7010E94F032065F1F4F67
:101710000F31F1E01F07A1F77E0185E1E80EF11C12
:101720008AE0F70111928A95E9F78FEF9FEF9A8F80
:10173000898F87E08E8F4AE050E0B801C7010E9490
:10174000F032065F1F4F0F36F1E01F07A1F77092CE
:101750001501609214016E96E1E10C94503280E024
:101760000E94ED0A60E086E290E00E94CC320E9486
:10177000060B0E948C0A81E00E94ED0A08959B01ED
:10178000883070F49AE0899FB001112461587F4F2E
:101790004AE050E0C9010E94A83290E080E008953C
:1017A0008FEF9FEF0895AAE0B0E0E9EDFBE00C9425
:1017B00043329C0137552F3F310509F068F4BE01D3
:1017C0006F5F7F4F0E94BF0B892B31F489859A850B
:1017D0002A96E2E00C945F3288EC90E0F9CFFF9219
:1017E0000F931F93CF93DF93F42E823040F5611156
:1017F00026C024E0829F8001112409581F4F82E0F7
:1018000090E0442311F090E080E0800F911F0E944F
:10181000B832C82FD0E0DC2FCC2783E090E0FF2047
:1018200011F081E090E0800F911F0E94B8329E017C
:10183000282BC901CDB7DEB7E5E00C945C3290E00F
:1018400080E0F8CF0F931F93CF93DF93823030F572
:10185000643020F5453010F5C42FD0E0CC0FDD1FEB
:101860002AE0629FC00DD11D112438E2839FC00D74
:10187000D11D1124CE0187960E94B832082F10E0A6
:10188000102F0027CE0188960E94B8329801282B8D
:10189000C901DF91CF911F910F91089590E080E0F1
:1018A000F8CF462F672F2091CE053091CF05232BFF
:1018B000F9F4703F39F4403FD9F48091CC05909110
:1018C000CD0508958230A0F4743028F4453080F4BA
:1018D0000E94220C08957D3F39F4411109C041E076
:1018E00060E00E94EF0B08957C3F11F44423C1F3A4
:1018F00090E080E00895CF92DF92FF920F931F93C4
:10190000CF93DF936C010091BD068091F401082B09
:10191000C7E0D0E010E0FC2EC8010C2E02C0959567
:1019200087950A94E2F780FD0CC02197A0F7F12C6F
:101930008F2DDF91CF911F910F91FF90DF90CF906E
:101940000895B6018C2F0E94510C0E94D606019773
:1019500061F3EECFCF93DF93EC010E947B0CBE01CD
:101960000E94510C0E94D606DF91CF9108950F93EB
:101970001F93CF938C01FC0143815481618180814D
:101980000E94F605C82F81112AC0F801868197812F
:10199000009791F00E94D60692959F709630D1F0F4
:1019A00080F4925F9F70923080F4803F19F058F479
:1019B000883E58F4C1E009C0808191810E94AA0C40
:1019C000EBCF9A5FEFCF843FA9F38C2FCF911F917C
:1019D0000F910895883E70F3813FB9F7EBCFC0E0D7
:1019E000F4CFA5E0B0E0E7EFFCE00C9442329C01BC
:1019F000FC01868197810097E1F485E0DE01119674
:101A000001900D928A95E1F7F901228189819A81ED
:101A1000222399F0662389F00E947B0C182F682FEF
:101A200089819A810E94180969817A81812F0E9497
:101A3000510C2596E3E00C945E320E94CE08182FDC
:101A4000F3CF83E290E00E94B8328F3B89F484E2C6
:101A500090E00E94B8328C3559F485E290E00E9403
:101A6000B83291E08B3A09F090E0892F81700895A7
:101A700080E0FCCFCF9384E090E00E94B832C82F82
:101A800082E290E00E94B832982F8C2FCF91089577
:101A9000AAE0B0E0EEE4FDE00C94393204E515E094
:101AA00082E4C82E85E0D82E9FE1E92EFF24F3942E
:101AB00027E0922E31E4A32E35E0B32E88248394C0
:101AC000D6010D931D936D014AE050E0B701CE01A0
:101AD00001960E94A832F8013896DF01892D1D92E7
:101AE0008A95E9F789819A81D80111969C938E9302
:101AF0008F8112968C9312978D8113968C931397E6
:101B0000888514968C931497898515968C931597D0
:101B10008B819C8117969C938E93169718961C9296
:101B200018978A8587FF3CC01E961C921E921D97AF
:101B300080FF03C0D80118968C9281FF04C0F80181
:101B400090859260908782FF07C0D80118969C917B
:101B50001897946018969C9383FF04C0F8019085B1
:101B60009860908784FF07C0D80118969C911897B9
:101B7000906118969C9385FF04C0F801808580626F
:101B80008087015F1F4FFAE0EF0EF11C8FE6E81629
:101B900081E0F80609F094CF2A96ECE00C945532D7
:101BA000F801B686A586C4CFAAE0B0E0EAEDFDE074
:101BB0000C943D32E1EFF4E080E5DF011D928A955F
:101BC000E9F7EAE3F6E088E3DF011D928A95E9F799
:101BD00081EFC82E84E0D82E7F010FEC10E0F701D2
:101BE000D182C0824AE050E0B801CE0101960E9445
:101BF000A83288E0FE013196D60101900D928A95B7
:101C0000E1F789859A85D70113969C938E93129755
:101C1000BAE0CB0ED11CE7E0EE0EF11C065F1F4FC1
:101C20000F31F1E01F07D9F62A96E8E00C945932FB
:101C3000CF92DF92EF92FF926B017C010E946B06C4
:101C4000B701A60188E090E00E94DE32FF90EF909D
:101C5000DF90CF900895B0E0A0E0E1E3FEE00C94C7
:101C60003932D82FC62FD42E822EC0906A04C0FEDF
:101C700032C08C2D8E7F8230E1F4E42FF0E0E45C02
:101C8000FB4F61112DC02491F22FE22FC0FE11C035
:101C9000AAE3B4E08AE694E01196EC9311972C93B2
:101CA0001296FC93129713968A179B07A9F70E9426
:101CB000570AD0936B04C0936C04D0926D048820B3
:101CC00051F060916A0470916B0480916C04909162
:101CD0006D040E94180ECDB7DEB7ECE00C945532BF
:101CE000E62EF12CE4919E2E0E2F10E026E0D29FDE
:101CF000C00111242FEF30E0B9010E941F328D2F57
:101D000090E0880F991FF5E5F69FA001F79F500D11
:101D10001124841B950BB82EBB0CB80EA9014E19CB
:101D20005F09409FC001419F900D509F900D11246D
:101D3000F92FCB9DA0011124452F5527D901A41BB4
:101D4000B50BA09FA001A19F500DB09F500D112475
:101D5000D901AB19B1095D01AE9CD001AF9CB00DAA
:101D6000BE9CB00D1124AB2FBB272A1B3B0B209F21
:101D7000D001219FB00D309FB00D11242B2F623068
:101D80007105A1F050F46115710509F47FCF613040
:101D9000710581F0292FF52F79CF6430710569F035
:101DA00080F06630710509F471CFF4CF2E2FE92F42
:101DB000FB2F6CCF2E2FE52F69CF292FFE2FEB2F76
:101DC00065CFE92FF92D252F61CFEAE6F4E04381B5
:101DD00021E1421B08F440E021E0628181810E9400
:101DE0002B0E0895EAE6F4E0438121E1420F08F466
:101DF0004FEF21E0628181810E942B0E0895EAE677
:101E0000F4E0628121E1621B08F460E021E043819B
:101E100081810E942B0E0895EAE6F4E0628121E1BF
:101E2000620F08F46FEF21E0438181810E942B0E45
:101E30000895EAE6F4E0818121E0438162818550E2
:101E40000E942B0E0895EAE6F4E0818121E04381AF
:101E500062818B5F0E942B0E089580916E0488230F
:101E600019F0815080936E0460916A0470916B0444
:101E700080916C0490916D040E94180E08958091D9
:101E80006E04833018F48F5F80936E0460916A044F
:101E900070916B0480916C0490916D040E94180EF7
:101EA000089580916A0480FF19C0817082608093D8
:101EB0006A04662351F060916A0470916B0480910A
:101EC0006C0490916D040E94180E20E040916D0406
:101ED00060916C0480916B040E942B0E0895809198
:101EE0006A048695815009F481E061E00E94510FF7
:101EF000089561E081E00E94510F0895EAE6F4E060
:101F000083E0808311828FEF8283838314826081D8
:101F10007181828193810E94180E089568EE7EEF90
:101F200090E080E00E94EA3260E082E090E00E946F
:101F3000CC3260E083E090E00E94CC321092F40159
:101F400060E084E090E00E94CC3264E082E290E0C5
:101F50000E94CC3260E085E090E00E94CC3260E0EC
:101F600086E090E00E94CC326FEF87E090E00E9424
:101F7000CC3240E050E0BA0188E090E00E94DE32CE
:101F800060E08DE090E00E94CC3240E050E0BA0189
:101F900088E190E00E94DE3260E087E190E00E94FC
:101FA000CC3240E050E0BA018CE190E00E94DE3299
:101FB00070E060E080E290E00E94EA3240E050E0B1
:101FC000BA0188E190E00E94DE3280E00E94ED0AD2
:101FD0000E94AF0B40E050E0BA018FE090E00E9419
:101FE000DE3240E050E0BA0183E190E00E94DE3250
:101FF000089590E080E00E94C632883E9E4F19F41A
:102000000E94210D089580E008951F920F920FB64F
:102010000F9211242F933F934F935F936F937F936E
:102020008F939F93AF93BF93EF93FF938091E100C2
:1020300082FF09C08091E20082FF05C08091E1002B
:102040008B7F8093E1008091DA0080FF24C0809133
:10205000D80080FF20C08091DA008E7F8093DA0064
:102060008091D90080FF9DC080E189BD82E189BD5A
:1020700009B400FEFDCF81E08093B3068091A606EF
:10208000811109C00E94B7030E9482048091E2007E
:1020900084608093E2008091E10080FF17C080910E
:1020A000E20080FF13C08091E2008E7F8093E20007
:1020B0008091E20080618093E2008091D80080628C
:1020C0008093D80019BC85E08093B3068091E1002D
:1020D00084FF2BC08091E20084FF27C080E189BD8E
:1020E00082E189BD89B5982F917080FFFBCF8091E7
:1020F000D8008F7D8093D8008091E1008F7E8093FF
:10210000E1008091E2008F7E8093E2008091E20006
:1021100081608093E2008091B406882309F447C06F
:1021200084E08093B3068091B3068091E10083FF41
:1021300027C08091E20083FF23C08091E100877F68
:102140008093E10082E08093B3061092B406809100
:10215000E1008E7F8093E1008091E2008E7F80938A
:10216000E2008091E20080618093E20042E060E062
:1021700080E00E9450048091F00088608093F0001D
:10218000FF91EF91BF91AF919F918F917F916F914F
:102190005F914F913F912F910F900FBE0F901F9025
:1021A000189519BC1092B3061092A60674CF8091B0
:1021B000E30087FD93E09093B306B5CF78941F9228
:1021C0001FB61F9211248F939F93AF93BF9380915B
:1021D0009F069091A006A091A106B091A20601963B
:1021E000A11DB11D80939F069093A006A093A10608
:1021F000B093A206BF91AF919F918F911F901FBE88
:102200001F9018959C014FB7F89480919F0690916C
:10221000A006A091A106B091A2064FBF821B930B0E
:1022200008952FB7F89480919F069091A006A091F1
:10223000A106B091A2062FBF0895A4E0B0E0E3E2AA
:10224000F1E10C943C3219821A821B821C8281E5D6
:10225000C82E81E0D82E10E000E0EE24E394F12CAB
:10226000F60181916F018F3F09F446C0F894E82F81
:10227000E295EF70F0E021A18F70A70102C0440F3A
:10228000551F8A95E2F7CA01922F982B91A392A12C
:102290008095892382A3789400C0E5E5F1E0B12C14
:1022A00031E021912F3F09F473C0A22FA295AF70A6
:1022B000B0E090968C9190E02F7002C09595879534
:1022C0002A95E2F780FD64C0832FB82A330F51E0CE
:1022D000EA35F50731F7F601319780818F3F11F02C
:1022E0000E947C0680EA8A95F1F7E1E0F0E0EC0FCD
:1022F000FD1FE00FF11FB0820F5F1F4F043011056B
:1023000009F0AECF44E050E0BE016F5F7F4F88EF31
:1023100091E00E949432892BE9F189819A81AB8105
:10232000BC818093F8019093F901A093FA01B093D6
:10233000FB0181E08093F7010E9411119093F60157
:102340008093F5018091F5019091F6010E940211B0
:10235000059720F144E050E068EF71E086E394E0F7
:102360000E949432892BF9F08091F8019091F90143
:10237000A091FA01B091FB01809336049093370449
:10238000A0933804B093390481E01092F70107C09C
:1023900080E09BCF8091F7018111D4CF80E024961B
:1023A000E9E00C94583280E0F0CF8091950690914E
:1023B0009406892B809384018091F301882319F17D
:1023C0000E9411112091F1013091F201821B930BB7
:1023D0008838934110F00E945708809184019091B1
:1023E000F301892B8093840120E086E891E0FC01D1
:1023F0003191CF0131112F5FF1E08C389F07B9F790
:1024000021110E94570880918A068095909184013D
:10241000892390918B06892B8093840148E050E0BA
:1024200069EE71E084E891E00E949432892BA9F072
:1024300088E0E4E8F1E0A9EEB1E001900D928A9520
:10244000E1F7E0919A06F0919B06309731F0028017
:10245000F381E02D84E891E009950895CF93DF930F
:10246000EC01EA85FB85309719F06C857D8509952F
:102470008B810E9462088C810E9469080E94D5119C
:1024800086E0FE0111928A95E9F7DF91CF910895D8
:10249000CF93DF93EC018D8181FD18C082608D8325
:1024A000809194069B81892B809394068091950658
:1024B0009C81892B809395060E94D511E885F9852A
:1024C000309721F06C857D85CE0109951092970695
:1024D000109296068D8180FD03C0CE010E942E12BF
:1024E000DF91CF91089590E080E00E94620590E036
:1024F00080E00E944C05109294060E94D511089528
:102500008093BD060E94731208958091BD06982F96
:102510009670963021F488600E9480120895877F1B
:10252000FBCF21E030E001C0220F8A95EAF7209529
:102530008091BD0682230E94801208959091E80147
:10254000809589238093E801282F277091F4282F04
:10255000082E000C330B9217130659F09091FD01D1
:1025600092FF07C08595859585950E9491120E94DE
:1025700070080895CF93C091FD01C2FB992790F98F
:10258000981791F080FBC2F9C093FD016091FC01A6
:1025900084E090E00E94CC326C2F82E290E00E94B6
:1025A000CC3282E00E949E12CF91089521E030E06B
:1025B00001C0220F8A95EAF78091BD06822B0E9406
:1025C000801208958093F4010E947312089510926E
:1025D0009506E6E8F1E086E0DF011D928A95E9F7CD
:1025E0000E9473120895AAE2B0E0E9EFF2E10C94C0
:1025F000423285EB96E02091F100DC012D93CD0174
:10260000B6E08D3B9B07B9F78091B606833009F49D
:1026100072C0B8F4813009F449C0823009F4B3C003
:102620008091E80083FF96C28091B5069091B6062E
:102630009A3008F08FC2E92FF0E0E65FFC4C0C9472
:102640007E328A3009F48EC08B3009F471C0893033
:1026500039F78091B506813219F78091B9069091CA
:10266000BA06009711F00297D9F68091E800877FAB
:102670008093E8008091E80082FF38C09091F300D9
:102680008091F200029731F48091F100813011F0D5
:10269000863021F48091F1008093A8068091E800B3
:1026A0008B778093E8000E943104BACF8091B50601
:1026B000813A09F0B5CF8091E800877F8093E800E8
:1026C0008091B9069091BA06892B61F468E089EA95
:1026D00096E070E00E94DD048091E8008B778093A3
:1026E000E8009ECF60E090E080E0F3CF8091B306F9
:1026F0008111C0CF95CF8091B506813A09F090CF76
:102700008091B9069091BA06892B09F089CF809102
:10271000E800877F8093E8008091E80080FFFCCF8D
:10272000809117018093F1008091E8008E77B9CFF6
:102730008091B506813209F073CF8091B9069091EE
:10274000BA06892B09F06CCF8091E800877F8093CF
:10275000E8000E9431048091B706809317010E941F
:10276000E7125ECF8091B506813209F059CF809192
:10277000E800877F8093E8000E9431048091B806CA
:102780008093A7064DCF8091B506813A09F048CFD6
:102790008091E800877F8093E8008091E80080FFC7
:1027A000FCCF8091A706BECF803899F0823809F01F
:1027B000D1C18091B9068F70873008F0CBC180936A
:1027C000E9008091EB0085FB882780F91092E900F1
:1027D00006C08091B1069091B206911182609091ED
:1027E000E800977F9093E8008093F1001092F10049
:1027F0008091E8008E77AAC1882309F498C18230BD
:1028000009F0A8C18091B70681119BC18091B906DA
:102810008F702FEF280F263008F09CC18093E900BD
:102820002091EB0020FF8DC1933031F48091EB00BB
:1028300080628093EB0085C19091EB009061909352
:10284000EB0021E030E001C0220F8A95EAF72093E7
:10285000EA001092EA008091EB008860EACF8111D3
:1028600079C11091B7061F778091E3008078812BA2
:102870008093E3008091E800877F8093E8000E94C6
:1028800031048091E80080FFFCCF8091E3008068F4
:102890008093E30082E0111183E08093B3065AC174
:1028A0008058823008F056C12091B7063091B806A2
:1028B0002C3DE3E03E07A1F583E08A838AE2898329
:1028C0004FB7F894DE01139620E03EE051E2E32F8B
:1028D000F0E050935700E49120FF03C0E295EF70C1
:1028E0003F5FEF708E2F90E0EA30C0F0C7968D9377
:1028F0009D932F5F243159F74FBF8091E800877F68
:102900008093E8006AE270E0CE0101960E94DD0447
:102910008091E8008B778093E8001CC1C096E7CFD8
:102920008091B9069091BA06432F5527433051053F
:1029300009F44AC078F54130510509F485C08BE5AA
:1029400090E0E8E4F6E04230510509F003C120913F
:10295000E800277F2093E8002091BB063091BC0659
:102960008217930708F49C0140E02115310509F016
:1029700070C041116EC08091E80082FDC9CF809186
:10298000B306882329F2853019F28091E80083FF8D
:10299000F2CFBECF4132510509F447C04232510552
:1029A00009F0D8C08330910508F0D4C0FC01EE0FC7
:1029B000FF1FEB58FE4F0190F081E02D8E589E4F87
:1029C000DC018C9190E01DC0332721303105E9F006
:1029D0002115310579F022303105F9F02330310528
:1029E00009F0B8C0E5EBF6E0E4918E2F90E0E5EB5E
:1029F000F6E007C0E5EFF6E0E4918E2F90E0E5EF1A
:102A0000F6E0009709F4A6C0A2CFE3EEF6E0E49169
:102A10008E2F90E0E3EEF6E0F4CFE3EDF6E0E49104
:102A20008E2F90E0E3EDF6E0ECCF8330910508F0D7
:102A300091C0880F991FFC01E558FE4F0190F0816D
:102A4000E02D89E090E083CF82E190E0E3EAF6E0D8
:102A50007ECF8091B306882309F45ACF853009F4DC
:102A600057CF8091E80083FD53CF8091E80082FD2D
:102A700082CF8091E80080FF78CF9091F300809121
:102A8000F2002115310519F08830910550F041E030
:102A9000089709F040E08091E8008E778093E80085
:102AA00064CF44914093F100319621503109019651
:102AB000E8CF803809F04EC08091E800877F80938E
:102AC000E8008091B4068093F10092CE811142C05B
:102AD0001091B7061230F0F58091E800877F80935F
:102AE000E8001093B4060E943104112311F084E031
:102AF00005C08091E30087FDFACF81E08093B306A3
:102B000042E061EC81E00E94500442E261EC84E02A
:102B10000E94500442E261EC82E00E94500442E2D2
:102B200060EC83E00E9450048091B30613C0809152
:102B3000B706813079F481E0933009F080E080932A
:102B4000B2061092E9008091E800877F8093E80048
:102B50000E9431048091E80083FF0AC08091E80060
:102B6000877F8093E8008091EB0080628093EB0088
:102B7000AA96E3E00C945E321F920F920FB60F926A
:102B800011242F933F934F935F936F937F938F9372
:102B90009F93AF93BF93CF93DF93EF93FF93D09126
:102BA000E900DF708091EC00C82FC17080FDC0E8A3
:102BB0001092E9008091F000877F8093F000789474
:102BC0000E94F3121092E9008091F00088608093D7
:102BD000F000CD2BCF70C093E900FF91EF91DF9112
:102BE000CF91BF91AF919F918F917F916F915F91A5
:102BF0004F913F912F910F900FBE0F901F901895FE
:102C00000E94E7122FEF84E39CE021508040904027
:102C1000E1F700C0000088E19CE00FB6F894A895A9
:102C2000809360000FBE90936000FFCF882321F057
:102C30000E9462080E94D5110895882339F090916E
:102C40009406982B909394060E94D511089588239A
:102C500021F00E9469080E94D5110895882339F057
:102C600090919506982B909395060E94D511089502
:102C7000882309F44DC0823879F40E94780581FFD9
:102C800047C089E30E9484080E94D51189E30E940D
:102C900077080E94D5110895833859F40E94780569
:102CA00080FF36C083E50E9484080E94D51183E529
:102CB000EECF843859F40E94780582FF29C087E45A
:102CC0000E9484080E94D51187E4E1CF9CEF980F01
:102CD000913AE8F290E2980F983050F4877091E0C2
:102CE00001C0990F8A95EAF7892F0E946908D1CF10
:102CF0009BE5980F933028F490E080E00E946205F5
:102D00000895885A873120F490E080E00E944C05B5
:102D10000895FF920F931F93CF93DF93F82E0091A6
:102D20008F06109190060115110509F449C0109203
:102D30008E0610928D0610928A0610928B06D8018C
:102D40001696CD91DC919E013A9521153F4108F4EC
:102D5000D07ED1E0C11101C0D0E0D8011996ED912B
:102D6000FC911A97309731F01B966D917C9180E021
:102D70000995D823DD2339F08CEF8C0F813A30F59B
:102D80008C2F0E947708FF2099F0E0918F06F09138
:102D90009006808584FD0CC080918C06882341F0CC
:102DA000808191819C0121503109203B3D45A0F05B
:102DB0000E94D5111092900610928F0610928C06E8
:102DC000C801CDB7DEB7E5E00C945C320E94D511A6
:102DD0008C2F0E943816D7CF0E948505E9CFCF935C
:102DE000C82F8823C9F08238C9F40E94780581FD74
:102DF00013C089E30E9484080E94D5112FEF87EE4B
:102E000093E0215080409040E1F700C0000089E34A
:102E10000E9477080E94D511CF9108958338A1F4BC
:102E20000E94780580FDF8CF83E50E9484080E9407
:102E3000D5112FEF81EE94E0215080409040E1F7D2
:102E400000C0000083E5E4CF8438A1F40E94780537
:102E500082FDE2CF87E40E9484080E94D5112FEF03
:102E600081EE94E0215080409040E1F700C00000E6
:102E700087E4CECF8CEF8C0F813A68F4E6E8F1E07E
:102E80008191C817A1F121E0EC38F207C9F78C2F26
:102E90000E948408BFCF80E28C0F883068F4C7702E
:102EA00021E030E001C0220FCA95EAF78091950633
:102EB000822B80939506AECFEBE5EC0FE33040F428
:102EC000F0E0E05EFE4F808190E00E946205A4CFBA
:102ED000C85AC73108F0A0CFEC2FF0E0EE0FFF1F6B
:102EE000ED5DFE4F808191810E944C0595CF8C2F26
:102EF0000E9477080E94D511CACF1F93CF93DF930A
:102F0000182FCAE0D0E0893311F4C0E5D0E0812F5A
:102F10000E94EF168FE99FE00197F1F700C00000D3
:102F20002197C1F7812F0E943816DF91CF911F9111
:102F30000895B0E0A0E0EFE9F7E10C943D326B01B9
:102F4000C42FD22FFC0182818823A9F040939306DD
:102F50000E9411119093920680939106C77081E0B0
:102F600001C0880FCA95EAF70E942E16CDB7DEB7CA
:102F7000E8E00C94593210919306141337C08091F5
:102F80009106909192060E9402117C01C6010E9456
:102F9000D30BE816F90650F5C0E2CD0F1D17C1F0AE
:102FA00080E2810F883048F4177081E0012E01C063
:102FB000880F0A94EAF70E942716C83048F481E087
:102FC0009D2F977001C0880F9A95EAF70E942E16E0
:102FD000802F0E947D17C83048F6D77081E001C06D
:102FE000880FDA95EAF70E942716C0CFC77081E0F4
:102FF00001C0880FCA95EAF7F6CFB0E0A0E0E3E0A1
:10300000F8E10C943A32EC01A62E8AE0982E288141
:10301000222309F4A4C0213009F04BC089818130FA
:1030200091F48E010E5F1F4F8A810E947D17E80187
:1030300021968A2D815058F3EFE9FFE03197F1F79F
:1030400000C00000F7CF823039F48E010E5F1F4FB1
:103050008A810E94EF16EBCF833039F48E010E5F28
:103060001F4F8A810E943816E2CF843011F02196DA
:10307000DFCF2A81229690E080E0AE014F5F5F4F64
:103080002053330B2A30310548F0019788F2EFE9DD
:10309000FFE03197F1F700C00000F7CF989EB00134
:1030A000999E700D1124C901860F971F2981EA018D
:1030B000E4CFE22FF0E0E853FA4FB490822F8695E8
:1030C0008695869590E0FC01E854FA4FE4902770CD
:1030D000F12C022E02C0F594E7940A94E2F731E055
:1030E000E322FF24FC01E855FA4FC490D12C022EB4
:1030F00002C0D594C7940A94E2F7E1E0CE22DD2421
:10310000FC01E856FA4F049110E002C015950795AE
:103110002A95E2F701701127E114F10419F081EE0C
:103120000E94EF16C114D10419F086EE0E94EF162A
:103130008B2D0E947D17C114D10419F086EE0E94D8
:103140003816E114F10419F081EE0E9438160115C9
:10315000110509F46DCF8CE20E947D1769CFCDB7C0
:10316000DEB7EBE00C945632CF93DF93EC010E9474
:1031700034099E01205E31092830310510F0209776
:1031800041F40E942E168C2F0E94EF16DF91CF91F2
:1031900008950E941D16F7CF9091FD0192FF10C077
:1031A00098E0899F90011124622B6093E8010E94AE
:1031B000D6120E9411119093E7018093E6010895C1
:1031C0000E94D6120895A9E1B0E0E9EEF8E10C946E
:1031D0003332498B5A8B6B8B7C8B8D8B61111092A8
:1031E00094061D861E861F86188A85E0FE0171964C
:1031F000DE01199601900D928A95E1F78091FD010B
:1032000082FF1CC00E9411112091E6013091E7015C
:10321000821B930B8838934120F08091E80182FF54
:10322000E6C10E9411112091F1013091F201821B3F
:10323000930B8838934110F00E9457084C855D85A8
:103240006A8589850E94F605811111C061E0CE0171
:1032500009960E94F10C6C018B8547EFC4164CE572
:10326000D40681F4882321F181E080931601298519
:103270003A854B855C856D857E858F8598890E9412
:103280000527C3C068EFC6166CE5D60629F4882367
:1032900079F00E94D127EBCF79EFC7167CE5D706EE
:1032A00039F4882329F0809116018111F2CFDCCF07
:1032B0000AE316E0E12CB12CA12C88248394912CF4
:1032C0002EEF522E44244394F8014081518166240C
:1032D0006A94762C20E0822F90E0FC01EE0FFF1F15
:1032E000E40FF51F608171816115710531F0C6161B
:1032F000D70609F43C012F5FEECFF12CFFEF6F16DC
:103300007F0609F444C0F8014481F09016018F2D26
:10331000411180E0F82FF170FF2EF80125808681A1
:103320009B85992309F4F2C0FF2009F4EFC0211016
:1033300014C0A401062C01C0440F0A94EAF7842BA0
:1033400086838091D6059091D705C29730F462E3C9
:1033500070E07093D7056093D605C40102C0880F52
:10336000991F2A95E2F70197F80126812817190677
:1033700071F480917C0690917D06009709F449C014
:103380000E940211C39708F444C0F8014482EF2858
:10339000FFEFAF1ABF0A095F1F4F28E0A216B10462
:1033A00009F092CF8B85882309F40CC1EE2009F433
:1033B00009C10E94111190937D0680937C06809133
:1033C000D905883010F591E0980F9093D90598E0D1
:1033D000FE013996DE01119601900D929A95E1F762
:1033E0003CE0839FC001112486529A4F28E0FE01E1
:1033F0003196DC0101900D922A95E1F72FEF3FEF16
:10340000FC0131872087D386C2866996E2E10C945D
:103410004F3280917A0650917B06982FF0E0E0E0E1
:10342000851314C090937A06E017F10709F4AFCF23
:1034300090E0FC01EE0FFF1FEE58F94FB182A08221
:1034400001968370992780937B06A1CF282E312C7B
:10345000F101EE0FFF1FEE58F94F20813181F7E0A7
:10346000F29FD001F39FB00D1124A65CB94F2D91AE
:103470003C911197398F288F40E020E030E0E32F16
:10348000F0E0EE0FFF1F688D798DE60FF71F60806B
:10349000718061147104E1F0F8010190F081E02D78
:1034A000FF8BEE8B20E005C06616770609F44F2DE2
:1034B0002F5FE22FF0E0EE0FFF1F6E897F89E60F8E
:1034C000F71F608171816115710571F73F5FD7CF7B
:1034D0004423C9F0F801231708F0FD0144820E17B8
:1034E0001F0721F490937A06F42E51CF981305C04C
:1034F000AE17BF0711F49F5F937091012F5F3F4F8D
:10350000822F83708DCFF0E0E0E0F7CF90E02110C4
:1035100020C0B40102C0660F771F2A95E2F79B0115
:10352000215031098217930731F4442309F448C02C
:10353000C5010E940106C401062C01C0880F0A942F
:10354000EAF7982F9095F801868189238683F22CDB
:103550001ECF9C01062C02C0359527950A94E2F7F0
:10356000A90141705527BC01615071098623972339
:10357000892B11F5452B01F1F80182819381892B6B
:10358000C1F01B821C821D821E8259825A820E94B7
:1035900011118160582F9D838C83F8018281938162
:1035A0008F83988729813A814B816D817E810E942A
:1035B0000527F8011582BFCFF22FF1702F2EBBCF58
:1035C0002F2CB9CF90917A0680917B06981731F015
:1035D0000E94E027EE2009F44ACE17CF0E947327FD
:1035E00010927D0610927C060E942F06F3CF82E097
:1035F0000E949E1216CEA5E0B0E0E1E0FBE10C9443
:1036000041328C019093CD058093CC05011580E269
:103610001807C0F4802F0E943816C8010E94340990
:103620009801205E31092830310518F00115110587
:1036300031F40E9427162596E4E00C945D320E9436
:103640001616F9CF80EF89838A831B820E9411119D
:103650008160782F9D838C8349815A816B818D8114
:103660000E94E318E8CF0F931F93CF93DF938C0151
:10367000EB0167E774E08C2F0E94BF0B892BA1F44C
:103680008FE39CE90197F1F700C00000DD27C159E5
:10369000DB4F8881F801128218828330F1F048F400
:1036A000813059F0823081F0DF91CF911F910F91DD
:1036B00008958430B9F08530B9F7809177049091FE
:1036C0007804009789F306C08091790490917A0478
:1036D000009799F30E94FB1AE7CF80917B049091A9
:1036E0007C04F6CF80917D0490917E04009791F741
:1036F00020917704309178048091790490917A0434
:1037000021153105F1F2009729F7C901E3CFA5E0B2
:10371000B0E0EDE8FBE10C9443329093CD0580934B
:10372000CC05811520E2920730F40E94B41825964A
:10373000E2E00C945F3280EF89838A8381E08B839F
:103740000E9411118160782F9D838C8349815A8159
:103750006B818D810E94E318EACFCF93DF93EC0158
:103760000E94871B8FE39CE90197F1F700C00000DE
:10377000CE010E94FB1ADF91CF9108950F931F9302
:10378000CF93DF938C01862F67E774E00E94BF0B15
:10379000892BB1F4C0917704D0917804209781F0FF
:1037A000F8018281833051F4CE010E94AD1BCE011D
:1037B0000E94AD1BCE010E94AD1B02C08430D0F729
:1037C000DF91CF911F910F9108950F931F93CF9386
:1037D000DF938C01EB0167E774E08C2F0E94BF0B35
:1037E000892B09F05CC0FE01FF27D80112968C914D
:1037F0001297E159FB4F8130B9F415969C9192FFD5
:1038000002C080830AC090FFFCCF82E08083809159
:10381000790490917A040097B9F48091770490919B
:1038200078040097E1F110C08230B9F515968C91BB
:1038300082FD28C080FD0BC083E0808380917B04E3
:1038400090917C04009701F10E94871B28C084E0BE
:10385000808380917D0490917E040097A9F78091E8
:103860007704909178040097F9F00E94AD1B809145
:10387000790490917A04009739F7809177049091B8
:103880007804E2CF85E0808380917704909178047A
:10389000009729F00E94AD1BF0CF86E08083DF9176
:1038A000CF911F910F9108958091790490917A049E
:1038B000B8CFA7E0B0E0EFE5FCE10C9433327C0137
:1038C000DC0113964D915C91149711966C911197B0
:1038D0008C910E94F6058111EEC061E0C7010E9443
:1038E000F10C8C01F70182818823E1F0809196062A
:1038F000909197060097B1F00817190799F0FEE02C
:103900008F9FC0011124FC01EA57FB4F20812460E6
:1039100020838F579B4FDC010D931C930E9448120C
:1039200010929406F7018281882309F4B2C6C80177
:1039300082519F45409708F0A0C68FEF93E00E9408
:10394000B8328111A8C06EEED62ED00E0FE611E06F
:10395000D11037C019821A821B821C8299249A9432
:1039600068012FEFC21AD20AC8010E94B8328983B7
:103970001A82882309F48FC0813009F080C0580171
:1039800032E0A30EB11CC6010E94B832C82E8A8351
:10399000882309F480C0C5010E94B832D82E8FEF69
:1039A0008C0D8330E0F4580143E0A40EB11CDB829F
:1039B000DD2029F060E0CE0101960E94FD1785010F
:1039C000CFCF0115F4E01F0709F465C0C8010E94BC
:1039D000B832811101C0DA940F5F1F4FB9CF8BEF5E
:1039E0008C0D833030F5C8010396DB825C01DD204D
:1039F00031F3580154E0A50EB11C0E94B8328C83FB
:103A00008823E9F28B819C818130AFEF9A0710F017
:103A1000982F8827B6E0CB1631F0E7E0CE1631F0CC
:103A20000E94AD1BCCCF0E94871BC9CF0E94FB1AFE
:103A3000C6CFF4E0CF12C3CF580124E0A20EB11CD0
:103A4000C80103960E94B832DD2029F1882319F1BC
:103A50008150990B989E9001999E300D11244D2D07
:103A60004150550BCA01820F931F019708F4A7CF4D
:103A7000AFE9BFE01197F1F700C00000F6CF6AE0B0
:103A8000CE0101960E94FD17560199CF81E00E9458
:103A9000D6120E9485128091E801877061F0D701EB
:103AA00012968C91882339F08091FD0182FF03C02A
:103AB00082E00E949E122796E2E10C944F3281E050
:103AC0000E949112E6CF82E0FBCF823009F01FC640
:103AD00080917B0490917C04892B09F418C62EE018
:103AE0002C9DC0012D9D900D1124FC01EA57FB4F28
:103AF00020812E7F20838F579B4F0E94481207C63C
:103B000081E080930001C7CF80910001882309F4F0
:103B1000EBC4480120EE821A91084090F301809195
:103B20008F01482A80919506482A38E0831691042F
:103B300008F086C098012770332781E090E001C02B
:103B4000880F2A95EAF7552009F477C0482AD7014B
:103B50008D919C910E94CE0821E030E0F90102C0D5
:103B6000EE0FFF1F8A95E2F7FF83EE8320908F060A
:103B70003090900660908C0170908D011D822D8197
:103B8000E22FF0E0EE0FFF1FEE5BFA4FC080D18016
:103B9000C114D10409F40CC5411005C0D601129618
:103BA0008C91811187C0F601838190E02E813F8145
:103BB00082239323892B09F47DC08085982F9770E9
:103BC00009F487E038E08316910408F053C05520CB
:103BD00009F44CC086958170882309F46BC0D60126
:103BE000AD90BC900A151B0519F4552009F462C06C
:103BF000C214D30409F45EC0D6011D96ED91FC9168
:103C0000309721F08081882309F454C0642DC601C7
:103C10000E94D605882309F44DC00A151B0509F03A
:103C2000D2C50115110509F4D3C55110D3C5A61489
:103C3000B70409F03FC0512CCDC58095482287CFED
:103C4000552009F49EC410938D0100938C010E94AD
:103C5000400560938606709387068093880690934C
:103C6000890610928E0610928D0671CF82FB8827EE
:103C700080F9B2CF5520F1F08170AECF0E94381696
:103C8000C8C50497813A910548F48A2D0E9484089A
:103C9000552009F429C40E94D511FDCE0E94D511EA
:103CA0008FE39CE90197F1F700C000008A2D0E9484
:103CB000EF16EECF9D819F5F9D8361CFFC01208138
:103CC00031810217130709F008C4511008C410927B
:103CD0008C0680E00E94891607C4902F812F4CC467
:103CE000F901858181FF78C4C9010E942E1274C434
:103CF00007E225EE45EE68ED7CE542C506E221EEE1
:103D000040EE63EF7CE53CC507E225EE44EE64EF50
:103D10007CE536C506E221EE42EE65EF7CE530C576
:103D200008E221E045EE69ED7CE52AC5053AFDE5AE
:103D30001F0709F468C4C0F401363DE5130709F410
:103D400062C406314CE5140709F003C6809195065C
:103D50008A7A91E009F490E090938E01811123C159
:103D600089E20E94840897CFC8018D5A9D45039728
:103D700040F749C48091FC01806207303CE513079D
:103D8000B9F18091FC01806108304CE5140780F1A5
:103D90008091FC0180642CC00D305CE5150709F4AE
:103DA000C0C090F48091FC018E7F0B309CE5190718
:103DB000F9F08091FC018C600C30ACE51A07C0F082
:103DC0008091FC018D7F14C00F30BCE51B0709F406
:103DD000B8C008F4AAC00031FCE51F0709F4B5C05B
:103DE0008091FC018F7B01312CE5120709F035C46D
:103DF0008093FC0132C40F3F3CE5130709F4B3C0C4
:103E0000A8F50A3F5CE5150709F479C0C0F4043150
:103E10009CE5190709F4B5C008F4A1C00531BCE55B
:103E20001B0709F01AC48091FC0182FB992790F9C5
:103E300021E0922790FB82F990FB83F9D9CF0C3FC8
:103E4000ECE51E0709F475C008F45DC00D3F2CE5D4
:103E5000120709F472C08091FD0183600E3F3CE5BA
:103E6000130709F0FAC38093FD01F7C301364DE54E
:103E7000140709F491C090F401308DE5180709F496
:103E800089C008F474C060E00230ADE51A0709F09B
:103E9000E4C38EE090E00E94CC32DFC30D3ABDE572
:103EA0001B07E9F060F49091FC01892F8E7F90FF51
:103EB0008160053AFDE51F0709F49ACFCEC30E3A9B
:103EC0002DE5120751F10F3A3DE5130709F0C5C37F
:103ED0009091FD01892F877F93FF8860C4CF8091E7
:103EE000FD018860C0CF8091FC01826081CF80910C
:103EF000FC0184607DCF8091FC01886079CF809146
:103F0000FD018160B0CF8091FD018260ACCF0E9445
:103F1000E7128091FC0180686BCF8091FD01877F63
:103F2000A2CF8091FC018B7F63CF8091FC01877FC2
:103F30005FCF8091FD018E7F96CF8091FD018D7FB7
:103F400092CF8091FC018F7E53CF8091FC018F7DB9
:103F50004FCF0E94E7128091FC018F7749CF80916B
:103F6000FC01837F45CF8091FD018C7F7CCF8091C8
:103F7000FD01982F909591708E7F892B90FB81F990
:103F800072CF0E94E7129091FC01892F97FB87F96D
:103F900080582ECF61E07DCF9091FC01892F8F7EDC
:103FA00094FF806125CF85E3DCCE85E309C4816081
:103FB00080936A0461E086950E94510F6CCD4FE6B4
:103FC0005FE069E77FE00E94650665CD49E75FE055
:103FD0006FE67FE0F8CF49E15FE063E27FE0F3CF97
:103FE00045EE5EE062EF7EE0EECF42EF5EE065EE32
:103FF0007EE0E9CF4DE25FE06FE37FE0E4CF61E098
:1040000081E0DACF0E94E712AFEFB4E3ECE0A15019
:10401000B040E040E1F700C000000E94330A809108
:10402000FD0182FB882780F991E089270E94BA125E
:10403000F701868197810097C1F10E94D6068C0115
:10404000F701C280B580B2943FE0B3228091E801CD
:104050008770C1F0AC2CCC20B1F0812F807F8034F0
:1040600021F080E2800F883068F08091FD0182FFAE
:1040700009C082E00E949E128091E8018770AA2404
:10408000A3948111A12C912E92942FE09222FBE017
:10409000F91508F484C0E92DF0E0EC5EFC4C0C94BA
:1040A0007E3281E0C3CF80E0C1CF82810081118167
:1040B000882369F0C8010E947B0CD82E682FC801A4
:1040C0000E941809B8018D2D0E94510CB6CFC8016D
:1040D0000E94CE08D82EF6CF212F2F70D22E107F1F
:1040E00019F0D29490EFD922CC20B9F0DD2069F0FC
:1040F00080E2800F883010F0011109C08091950690
:10410000D82AD09295060E94D511802F46C0809162
:104110009406D82AD0929406F6CF802F0E943816A3
:10412000DD20E9F180E2800F883010F0011104C039
:104130008D2D0E94690803C08D2D0E9462080E9487
:10414000D5112DC0312F3F70D32E107F103219F0B2
:10415000D29480EFD822002381F0013009F493C07B
:10416000CC2009F49CC0BB2009F469C0F70185810B
:1041700080FFCBCF8F70858362C08091FD0182FD6F
:1041800037C0CC2079F1DD2039F080919506D82A0E
:10419000D09295060E94D51180E00E94EF16A92DBD
:1041A000A850BB0B149710F40E947805AA20A9F020
:1041B0008091E80180FD11C0F701128285958595F7
:1041C00085950E94D612C7010E94591C8091E80172
:1041D0008595859585950E94911260E0C7010E94A2
:1041E000F10C69CC80E00E943816DD20C1F2A0CF2E
:1041F000CC2049F1B11004C08091F3018D2920C079
:1042000041E0B41210C082FFCACF8091F301D82AD6
:10421000D81629F20E9411119093F2018093F101B6
:10422000D092F301BCCF55E0B512E6CF0E945708FB
:1042300090918F018D2D892B891380938F018D2D66
:104240000E942E16ACCFB11003C00E94570812C0B6
:1042500081E0B81213C0809195068D2109F49FCF9B
:104260000E94570890918F018D2D80958923891385
:1042700080938F018D2D0E94271691CF95E0B9165E
:1042800009F48DCFE2CFCC2029F0A5E0AB1508F4DE
:1042900086CFD5CFB4E0BB1508F481CFEBCFBB20E0
:1042A00049F3093309F014C1FFEF27EE33E0F15071
:1042B00020403040E1F700C00000802F0E943816F7
:1042C0006ECF812F86958695837061F0813009F0DD
:1042D00066CFC8019370C11002C090E080E00E94D8
:1042E0004C055DCFC8019370C11002C090E080E022
:1042F0000E94620554CF812F837089F5C1104FCF82
:10430000402F429546954770440F440F802F8F7081
:10431000042E01C0880F0A94EAF7202F207104FFB1
:1043200007C02FE030E001C0220F4A95EAF7209540
:10433000169516951370123069F050F43091F4010F
:10434000113029F0822B83230E94E21228CF832B85
:10435000822BFACF282B8091F4018227F5CF869506
:10436000CC2011F0812F8170882309F418CF402FC1
:10437000429546954770440F440F802F8F70042E4E
:1043800001C0880F0A94EAF7202F207104FF07C0AC
:104390002FE030E001C0220F4A95EAF720951695EC
:1043A00016951370123069F050F43091BD0611303B
:1043B00029F0822B83230E948012F1CE832B822B43
:1043C000FACF282B8091BD068227F5CF1F70CC2015
:1043D00029F0812F0E94D612802F32CF802F0E9489
:1043E0002716812F0E949112DACE023F89F160F4E4
:1043F000003FB9F0013F81F0CC2009F464C0B11056
:1044000084CE812F8F7128C0033F49F1043FA1F76B
:104410008091FD0182FD2FC0812F8F71CC2011F37F
:104420001BC0CC2081F094E09B1508F4B8CE1F711E
:1044300081E090E0012E01C0880F0A94EAF7909184
:10444000BD068927B8CFA5E0AB1508F4A8CEEFCFFD
:10445000812F8F71C110C6CF0E94D612A0CE80E0EE
:10446000CC2009F4A8CF1F7181E0012E01C0880F74
:104470000A94EAF7A0CFCC20C9F08091E8018770B8
:10448000843041F40E947008812F8F710E94911234
:10449000A12C85CEB4E0BB15D8F31F71812F0E94EB
:1044A000D61263E0812F0E94CC18F2CFE4E0EB1526
:1044B00030F40E94700864E0812F8F71F4CF81E0A6
:1044C0000E949E12E5CFB110ECCE812F8F718ACF62
:1044D0008FE39CE90197F1F7EECE552029F0DC013E
:1044E00018968C9185FFF5CBC80197558F3F9105A4
:1044F00011F008F02BC15801BB24BEE00B9FF00166
:1045000011249F012F573B4F6901D70112968C91BF
:10451000EA57FB4F908180FB90F99083882309F440
:10452000DFCB0E9411119093070280930602F601DF
:1045300082818F5F82838091940690919506892B6A
:1045400083838091F30184830680F781E02D309787
:1045500031F0D6011C966D917C91C60109958EE0D3
:104560008A9DF0018B9DF00D1124EF57FB4F858143
:1045700081FFB3CB90E080E09093960680939706FE
:104580002BC080918C0190918D010817190781F43F
:1045900010928D0110928C0110928606109287065F
:1045A000109288061092890610928E0610928D063F
:1045B00080918F0690919006009709F495CFA8E01E
:1045C0008A16910408F07ACB642D0E94D6058111D9
:1045D00003C081E00E948916D70112968C9188232E
:1045E00009F4E4C0109293060330BDE51B0708F000
:1045F0009DCB0A3FECE51E0730F4C80182509C4574
:10460000449708F09ECB0E943A0D9093FD01809351
:10461000FC0102314CE5140709F49BCC08F0EBCB0C
:1046200009308CE5180709F472CC08F0B5CB0530D9
:10463000ACE51A0709F45FCC08F09CCB0330ECE53D
:104640001E0709F450CC08F052CC8091FC01816027
:1046500002302CE5120709F4CBCB6091FC011091DC
:10466000FD0184E090E00E94CC32612F82E290E074
:104670000E94CC320E94E7120ECA0031BFE51B0730
:1046800009F404CA0131EFE51E0709F040C082E0D9
:10469000FEC90031FFE51F0709F411CA01312FE5FA
:1046A000120709F410CA6801E7E5DE1AFFEFCF161A
:1046B000D10409F060F567E774E08C2D0E94BF0B10
:1046C000892B29F58EE08C9DF0018D9DF00D112434
:1046D000EF57FB4F8281813009F0F7C98091770451
:1046E00090917804892B99F08091790490917A04C3
:1046F000892B69F080917B0490917C0420917D044A
:1047000030917E04822B932B892B09F4E8C9D701C1
:1047100012965C90552009F4F7C90F35BDE51B07CB
:1047200009F4EEC90036EDE51E0751F00E35FDE542
:104730001F0709F0E9C980910001882309F4E0C945
:104740001092000180E00E948916A5C9033F3CE554
:10475000130709F4D3CAC0F4083D5CE5150709F452
:10476000C7CA093D8CE5180709F4DACA073D9CE57C
:10477000190709F031CF06E221EE41EE67ED7CE545
:10478000C7010E94991787C9053FACE51A0709F4CC
:10479000C1CA08F4B9CA063FECE51E0709F01CCFF0
:1047A00007E225EE46EE66EF7CE5EACF0631FCE552
:1047B0001F0709F062C080918E018111F6CB89E25A
:1047C0000E94770868CAA114B10409F030CA512CBC
:1047D000B12CA12C80E00E948916D0929006C09244
:1047E0008F0681E080938C06D60115968C9180937C
:1047F0008A0651100EC0AB2861F0F60180819181CC
:104800009C0124503109213A310508F037CA0E9431
:104810007708D6011696AD90BC90C5019A95811582
:104820009F4110F4E0EEBE2277247394C5010197F6
:10483000803B9D4508F0712CD6011996ED91FC91B5
:104840001A97309731F01B966D917C9181E0099514
:104850007822772079F0F601868197810E943409C9
:1048600080938B06C501F8E08F16910408F009CA01
:104870000E9485050E94D5110BCA8091950682720F
:10488000093C2CE5120709F4ABCB08F046C0053C07
:104890004CE5140709F49FCB48F5033C9CE5190748
:1048A00009F48DCB08F092CB023CBCE51B0709F064
:1048B000BFCB80916A0480FF7ACB8E7F80936A049D
:1048C00060916A0470916B0480916C0490916D0406
:1048D0000E94180E5FEF80E792E0515080409040B8
:1048E000E1F700C000000E94570AD5C84FEF5EE014
:1048F0006CE07FE0073CECE51E0709F464CB43E283
:104900005FE069E17FE0083CFCE51F0708F45BCB52
:104910004CE05FE06FEF7EE056CB0D3C2CE51207DC
:1049200009F46DCB60F40B3C4CE5140709F462CB41
:1049300008F45BCB4FE35FE06DE27FE044CB063DE4
:104940008CE5180708F4A7C80D35100709F4A3C8AB
:104950006FCB0A35ADE51A0709F4A3CB68F401154E
:10496000ECE51E0709F44ECB0E3D1C4509F060CB6B
:104970000E948E0F0E9400160C352DE5120709F4D7
:104980004ECB08F490CB073A1D45A1F351CBB0E0D4
:10499000A0E0EDECF4E20C943D328091A101807F27
:1049A00031F480919E01C091E501811107C0CDB71E
:1049B000DEB7E8E00C9459322196C7708091A401CB
:1049C0008C17A9F3F0909C01E0909D01C0909F018D
:1049D000D090A001A6016E2D8F2D0E94F605D0E08B
:1049E0008111EACF8E0183E0000F111F8A95E1F754
:1049F000F801EB55FE4F81818E11DECF80818F1142
:104A0000DBCF82818111D8CFE380F480EC18FD08E0
:104A100060E08CE991E00E94F10C0E94D30BE81653
:104A2000F90650F68091A1018F7080618093A101F9
:104A3000F801E655FE4F80818F70806180838CE99C
:104A400091E00E94591C0E949D08B1CFA5E1B0E001
:104A5000ECE2F5E20C9435328C0185E0F801DE01E0
:104A6000519601900D928A95E1F7F801E2804CE9A8
:104A7000A42E41E0B42E80909F019090A001A4014B
:104A800060919D0180919C010E94F605682E811124
:104A9000A1C1F801C380D480F0909E01C60188199D
:104AA00099094C01FF2009F447C14080518060E022
:104AB000C5010E94F10C0E94D30B7090A1018816D1
:104AC000990608F0E1C040919F015091A001B0907B
:104AD0009C01A0909D01872D807F6A2D09F080C0E8
:104AE0008B2D0E94F605FE2C811124C0F8018181D6
:104AF0008A1120C080818B111DC02091A2013091AC
:104B0000A3018681978128173907A1F4E11012C00B
:104B1000872D8F7080618093A1018CE991E00E94C4
:104B2000591C8091A101F80185838F2D6596E0E1E4
:104B30000C945132A601652D842D0E94F605811139
:104B400022C081E08E25F82FF170DF2E80FF3EC05D
:104B50008091E5012091A401821317C0498A5A8AE5
:104B600089899A890E94AA0C292F22952F702230B8
:104B700008F1243030F59F7009F1F8019581907F9C
:104B8000E9F4F62CD2CF80E0DECF90E0FC0133E0F8
:104B9000EE0FFF1F3A95E1F7EB55FE4F31815312AF
:104BA00006C03081431203C03281E3120FC0019668
:104BB0008770D2CF9F7011F0882319F3805E883000
:104BC00000F3C8010E94591C6D2CDBCFEE2009F4C4
:104BD000ACCF8091A10181608093A101F12CA5CF80
:104BE0008B2D0E94F60581111FC0F80181818A1169
:104BF0001BC080818B1118C02091A2013091A301AC
:104C0000868197812817390779F4E1100DC07582E4
:104C1000C8010E94591C88E0F801ACE9B1E001909C
:104C20000D928A95E1F781CFC8010E94B70C8823C5
:104C300039F1EE2029F18091A1018032A0F020917C
:104C40009C0130919D013A8729871B86DD86CC86A1
:104C50008E878091A2019091A301988B8F87CE01BE
:104C600009960E94591C88E0F801ACE9B1E0019076
:104C70000D928A95E1F70E94C724FF24F39455CF43
:104C8000C8010E94591CF9CF872D807F51F48CE90F
:104C900091E00E94591C88E0F50111928A95E9F78C
:104CA0009DCF90909C0180909D0140919F015091DB
:104CB000A001682D892D0E94F60581111CC0F80104
:104CC0008181881118C08081891115C02091A201AD
:104CD0003091A301868197812817390761F4E1108B
:104CE0000AC07582C8010E94591C88E0F501119222
:104CF0008A95E9F71ACFC8010E94B70C882309F4F6
:104D0000BFCFEE2009F4BCCF8091A101803208F41E
:104D1000AACF20919C0130919D013A8329831B8267
:104D2000DD82CC828E838091A2019091A30198872D
:104D30008F83CE01019695CF60E08CE991E00E94CF
:104D4000F10C0E94D30B8816990678F6FE2CEE2003
:104D500009F496CFE0909C01D0909D0140919F0175
:104D60005091A0016D2D8E2D0E94F605811124C059
:104D7000F80181818D1120C080818E111DC020918C
:104D8000A2013091A3018681978128173907A1F4E8
:104D90009091A10190FD3FCF907F09F43CCF80918D
:104DA000A1018583903F09F433CF982F907F905FC6
:104DB0008F70892B85832CCFC8010E94B70C81117D
:104DC00052CF8091A10181608093A101C8010E940E
:104DD000591CABCEEE2009F453CFC8010E94B70C8A
:104DE000F82E882309F44CCF88E0F801ACE9B1E053
:104DF00001900D928A95E1F780919C0190919D011F
:104E00000E94AA0C0E94C72490CEA0E1B0E0EBE083
:104E1000F7E20C94433229873A874B875C876D878A
:104E20007E878F87988BCE0109960E942625811157
:104E30002FC088E0FE013996DE01119601900D9297
:104E40008A95E1F74C855D856A8589850E94F6051E
:104E500081111EC0A091A401B0E0CD010196877020
:104E600099272091E50128171906E1F093E0AA0F90
:104E7000BB1F9A95E1F7AB55BE4F98E0FE01319606
:104E800001900D929A95E1F78093A4010E949D08EC
:104E90008091E5019091A401891312C06096E2E02F
:104EA0000C945F320E94E7121092A4011092E50167
:104EB00088E0ECE9F1E0DF011D928A95E9F7E8CF9F
:104EC000B8E08B9FC00111248B559E4F0E94262570
:104ED000882321F38091E50190E00196877099275E
:104EE0008093E501D5CFB0E0A0E0E9E7F7E20C94CC
:104EF0003E328091D905882369F0C091D805E12C14
:104F00008CE0F82E8091D905C81748F01092D90589
:104F10001092D805CDB7DEB7E7E00C945A32DD2405
:104F2000D394DC0ED092D8050C2F10E0CF9DE00179
:104F30001124C652DA4F4B815C81698188810E94BD
:104F4000F60581112CC08E819F81892B21F48885E3
:104F50009985019651F4288139814A815B816C8160
:104F60007D818E819F810E940527F09EF001F19E38
:104F7000F00D1124E652FA4F148213821092940617
:104F8000E1100DC0CE010E94B70C811108C08FE363
:104F90009CE90197F1F700C00000EE24E394CD2DC9
:104FA000B1CF10927D0610927C061092160180916E
:104FB0007B0680937A060E942F060E94732708952D
:104FC000B0E0A0E0E6EEF7E20C943432C0917A064D
:104FD00097E0892E01E010E02CE0322E3EEF932E78
:104FE0004424439480917B068C1309C00E9473274C
:104FF0000E942F06CDB7DEB7E1E10C945032D0E02D
:10500000FE01EE0FFF1FEE58F94F80819181889EBF
:10501000D001899EB00D1124A65CB94F14962C9135
:105020001497211158C05090D905EAEDF5E030E011
:1050300020E0712C5D01251508F04BC0E284F3845B
:10504000D501CD90DC906FEF7FEF612C462D50E0C5
:10505000DA01AA0FBB1FAC0DBD1D0D90BC91A02D98
:10506000109731F0EA16FB0609F4BA016394EECF0B
:105070006F3F7607A9F1D80102C0AA0FBB1F6A953E
:10508000E2F77A2AB801062C02C0660F771F0A944D
:10509000E2F7AB014150510974161506F9F4329E3E
:1050A000F001339EF00D1124E652FA4F889ED00194
:1050B000899EB00D1124A65CB94F12962D913C919A
:1050C00013973783268390829182918780871596E4
:1050D0004C920E9401062196C37084CF14821382E1
:1050E0002F5F3F4F3C96A7CF1F921FB61F921124F0
:1050F0008F939F93AF93BF9380919E06811113C0AE
:1051000080919F069091A006A091A106B091A20661
:105110004196A11DB11D80939F069093A006A09378
:10512000A106B093A206BF91AF919F918F911F905E
:105130001FBE1F901895CDB7DEB7CA54D1090FB660
:10514000F894DEBF0FBECDBF85B7806885BF85B739
:10515000806885BF84B7877F84BF0FB6F894A89511
:1051600080916000886180936000109260000FBEA3
:1051700080E890E00FB6F89480936100909361000E
:105180000FBE8AE796E090938301809382010E948C
:1051900040060E94D40D0E94480D0E94B7030E9451
:1051A00082048091E20084608093E2007894809190
:1051B000B3068823A1F01091E9001F709091EC00D4
:1051C000892F817090FD80E8182B1092E900809162
:1051D000E80083FD0E94F3121F701093E90082E043
:1051E00084BD93E095BD9AEF97BD80936E000E94B9
:1051F000210D811102C00E94AF0B84E90E947C0640
:1052000086E60E947C0687E90E947C0686EC0E9466
:105210007C0605E511E02AE5E22E21E0F22ED80118
:105220008D918D018F3F11F00E947C06E016F106F2
:10523000B1F784E0E6E3F4E0DF01282F1D922A9520
:10524000E9F7E8EFF1E0DF011D928A95E9F70E94A6
:10525000F90F811102C00E948E0F82E090E00E943F
:10526000B832809301020E943A0D9093FD01809321
:10527000FC010E941D11EFE3FCE93197F1F700C03A
:1052800000000E941D118091360480FF08C06FEF5E
:105290007FEF90E080E00E94EA320E94330A83E0D0
:1052A00090E00E94B8320E94E21283E080932F04C3
:1052B00080E280930C020E9433316DE070E083E560
:1052C00091E00E946509892BE9F580912F0463E044
:1052D00070E081FDFBC080E591E00E946509892BAB
:1052E00089F56DE070E080E491E00E946509892B0A
:1052F00049F50E944005605A75418F4F9F4F60935A
:10530000D0057093D1058093D2059093D305EFE239
:10531000F2E080E092E0DF019C011D9221503040DC
:10532000E1F7F0930E02E0930D028FEF9FEF909361
:1053300032048093310481E08093D5058093D405B5
:10534000109230048091FE01811131C00E94F90F4A
:10535000811104C00E948E0F0E947E0F88E090E0B1
:105360000E94C03260936A0470936B0480936C0453
:1053700090936D046E7F71F40E947E0F88E090E040
:105380000E94C03260936A0470936B0480936C0433
:1053900090936D040E946B0680916A0480FF04C0A4
:1053A00060E086950E94510F81E08093FE0181E0CC
:1053B00080930A0224982C9A25982D9A8FE891E0E0
:1053C0000197F1F700C0000020910A024BE052E083
:1053D000FA018E2F841B821708F47BC081E091E0D4
:1053E00090939B0680939A0686E394E094E0692E5E
:1053F000680E8091B306853069F480E4F82E00E1F0
:1054000012E18091B306853009F46EC00E94E71264
:105410000E9478050E941D1112E0A12E12E0B12E0B
:1054200006E3C02E04E0D02E26E032E0D601F501DE
:1054300091918D912E173F0709F48EC09817C1F3F3
:1054400010E0F60101916F01D5018D915D0180178A
:10545000A1F1982E9026F12CEE24E394892D8E2133
:1054600021F12596FFAE259726961FAF269791E04E
:10547000802F8E2109F490E027969FAF27970E94F6
:1054800011118160782F29969FAF8EAF29972596AD
:105490004FAD259726965FAD269727966FAD279738
:1054A00029968FAD29970E94E318F394EE0CB5E08E
:1054B000FB12D4CFF501319700831F5F143009F040
:1054C000C0CF0E944005EE24E39473C08DE491E0C8
:1054D00004CF83B1829581701D9904C090E0892B1F
:1054E000819377CF92E0FBCF8091B306843029F18E
:1054F0000E948F0910929E06A8E1B0E00FB6F894C2
:10550000A895A09360000FBEF092600083B7817FE2
:10551000846083BF83B7816083BF7894889583B7A5
:105520008E7F83BF0FB6F894A89580916000886144
:1055300080936000109260000FBE8091B2068823B5
:1055400009F45FCF0E941D11E6E3F4E0819181111F
:105550006CC66E12FBCF55CF981372CF0E941111FB
:105560008C018091FF01909100020817190701F149
:105570008FEF8FAF21968FAF219722961FAE229784
:105580000E9411118160782F24969FAF8EAF2497CF
:105590004FAD21965FAD219722966FAD229724964D
:1055A0008FAD24970E94E318109300020093FF012F
:1055B000E12C80918D0690918E06892B09F43EC0D6
:1055C0004091820650918306609184067091850611
:1055D0002FB7F89480919F069091A006A091A10604
:1055E000B091A2062FBF841B950BA60BB70B409161
:1055F0007E0650917F066091800670918106841727
:105600009507A607B707D0F080918D0690918E067A
:105610000E94B41810928E0610928D061092820687
:1056200010928306109284061092850610927E06D0
:1056300010927F06109280061092810600919606C5
:105640001091970601151105E9F0809106029091DD
:1056500007020E9402116C01C8010E94D30B8C1535
:105660009D0580F480919606EEE08E9FC001112486
:10567000FC01EA57FB4F208122FD04C08F579B4F4E
:105680000E944812809116018823F9F080917C06CF
:1056900090917D060097C9F00E9402112091D605D5
:1056A0003091D7052817390780F490917A068091B8
:1056B0007B069817B1F00E94E0271092D705109250
:1056C000D60510927D0610927C06912CF12CF4E008
:1056D000AF2EB12CADEF8A2E77247394BCEF5B2EE6
:1056E000A1C00E94732710927D0610927C060E9432
:1056F0002F06EBCF092D10E0E3B1E295E1701D9983
:105700003EC180E08E2BD801A55FBD4FEC919E2F4E
:105710009370891709F485C0EE0FEE0FE82BEC9318
:10572000EF70F0E0E65AFE4F9801275F3D4F6901A8
:105730008081D9019C91890F8C9320E084308CF179
:10574000F801E85FFD4F80818F5F80830E94111117
:105750009DAA5EAA7FAA8160782F99AF88AF492D54
:105760005CEF61E089AD0E94E318EFE3FFE1319760
:10577000F1F700C000000E9411119AAE5BAE1CAEA2
:105780008160782F9EAF8DAF492D5CEF60E08EADCC
:105790000E94E3188FE39FE10197F1F700C000003A
:1057A00021E0D6018C918D3F8CF5F801E85FFD4F2B
:1057B0008081815080830E9411119BA68CA67DA6BA
:1057C0008160782F9FA78EA7492D5DEF61E08FA59F
:1057D0000E94E318EFE3FFE13197F1F700C000000A
:1057E0000E94111198AA89AA1AAA8160782F9CABED
:1057F0008BAB492D5DEF60E08CA90E94E3188FE32D
:105800009FE10197F1F700C0000021E0D6018C91E3
:10581000082E000C990BB5010E946A32F6018083B4
:10582000F22A939480910A02981608F463CFF1103B
:105830000E9440058091D505882309F456C08FE267
:1058400092E090930E0280930D02209131043091EA
:105850003204DC0190E080E041E050E0FC01E05ADD
:10586000FE4F14916D911617A1F0BD0161507109A1
:10587000FB011083BC01E5E076956795EA95E1F7B9
:10588000FA0102C0EE0FFF1F6A95E2F7BF012E2B4F
:10589000372B01968115F2E09F0701F73093320410
:1058A000209331042115310539F08091300461E0F5
:1058B00070E0882309F466C08091D4058823A9F09C
:1058C0000E9440050091D0051091D1052091D2058C
:1058D0003091D305601B710B820B930B6F3F7F4F91
:1058E0008F4F9F4710F40E948F09E11001C0F11003
:1058F0000E94AA090E94780590913304891721F02B
:10590000809333040E9440058091B306843009F0EF
:1059100070CD83E08093E9008091E80082FF69CD3B
:105920008091E80090E085FF06C00E94D60388239E
:1059300009F4FAC091E08091E8008B778093E80049
:10594000992309F456CD0091CE051091CF05898198
:105950000115110509F404C18E3F09F08AC18A813D
:10596000833020F08550833008F083C1EA81EE3027
:1059700008F07FC1F0E0E05EFC4C0C947E3282E0E7
:10598000C1CE8F5F082F10E02B01082E02C0440CFF
:10599000551C0A94E2F7A90144215521452B89F3AE
:1059A00090912F0490FD44C08295880F807680935B
:1059B0000F0198013695279536952795209312016A
:1059C000815E809310011092130124E630E047E0DD
:1059D00050E06DE071E088E70E94D331892B09F037
:1059E0006BCFA80165E0440F551F6A95E1F78091E0
:1059F0002F0480FD2BC0415D5D4F04E610E020E2E6
:105A000030E060E488E70E94F431892B09F054CF3C
:105A10000E94AA09C201809590954090310450904F
:105A2000320448225922509232044092310444CF29
:105A3000880F880F880F80930F0110921201895FE1
:105A40008093100183E080931301BFCFEFE0F2E079
:105A500080E2DF011D928A95E9F7EEE6F1E02B96F0
:105A6000FFAFEEAF2B970AE611E037E0A32E9924A3
:105A700093942B96AEADBFAD2B972D912B96BFAFC8
:105A8000AEAF2B97F80121908F01240E352E311CDB
:105A9000C101815D9D4F1C01E22FF0E0E15FFD4FF0
:105AA00030E020E07A2C721AB92C022E01C0BB0C17
:105AB0000A94EAF7610190E0D6018D916D018B2186
:105AC000672D691B6770862E062E000C770BB82F8A
:105AD00001C0BB0F8A94EAF78B2E7195619571090D
